{
	"prac6c.sol": {
		"Fact": {
			"abi": [
				{
					"constant": true,
					"inputs": [
						{
							"internalType": "int256",
							"name": "num",
							"type": "int256"
						}
					],
					"name": "factorial",
					"outputs": [
						{
							"internalType": "int256",
							"name": "res",
							"type": "int256"
						}
					],
					"payable": false,
					"stateMutability": "view",
					"type": "function"
				},
				{
					"constant": true,
					"inputs": [
						{
							"internalType": "int256",
							"name": "num",
							"type": "int256"
						}
					],
					"name": "factorial2",
					"outputs": [
						{
							"internalType": "int256",
							"name": "",
							"type": "int256"
						}
					],
					"payable": false,
					"stateMutability": "view",
					"type": "function"
				}
			],
			"devdoc": {
				"methods": {}
			},
			"evm": {
				"assembly": "    /* \"prac6c.sol\":28:666  contract Fact {\r... */\n  mstore(0x40, 0x80)\n  callvalue\n    /* \"--CODEGEN--\":8:17   */\n  dup1\n    /* \"--CODEGEN--\":5:7   */\n  iszero\n  tag_1\n  jumpi\n    /* \"--CODEGEN--\":30:31   */\n  0x00\n    /* \"--CODEGEN--\":27:28   */\n  dup1\n    /* \"--CODEGEN--\":20:32   */\n  revert\n    /* \"--CODEGEN--\":5:7   */\ntag_1:\n    /* \"prac6c.sol\":28:666  contract Fact {\r... */\n  pop\n  dataSize(sub_0)\n  dup1\n  dataOffset(sub_0)\n  0x00\n  codecopy\n  0x00\n  return\nstop\n\nsub_0: assembly {\n        /* \"prac6c.sol\":28:666  contract Fact {\r... */\n      mstore(0x40, 0x80)\n      callvalue\n        /* \"--CODEGEN--\":8:17   */\n      dup1\n        /* \"--CODEGEN--\":5:7   */\n      iszero\n      tag_1\n      jumpi\n        /* \"--CODEGEN--\":30:31   */\n      0x00\n        /* \"--CODEGEN--\":27:28   */\n      dup1\n        /* \"--CODEGEN--\":20:32   */\n      revert\n        /* \"--CODEGEN--\":5:7   */\n    tag_1:\n        /* \"prac6c.sol\":28:666  contract Fact {\r... */\n      pop\n      jumpi(tag_2, lt(calldatasize, 0x04))\n      shr(0xe0, calldataload(0x00))\n      dup1\n      0x5ad78e8a\n      eq\n      tag_3\n      jumpi\n      dup1\n      0x999dfb42\n      eq\n      tag_4\n      jumpi\n    tag_2:\n      0x00\n      dup1\n      revert\n        /* \"prac6c.sol\":53:414  function factorial(int num) pure public returns(int res) \r... */\n    tag_3:\n      tag_5\n      0x04\n      dup1\n      calldatasize\n      sub\n        /* \"--CODEGEN--\":13:15   */\n      0x20\n        /* \"--CODEGEN--\":8:11   */\n      dup2\n        /* \"--CODEGEN--\":5:16   */\n      lt\n        /* \"--CODEGEN--\":2:4   */\n      iszero\n      tag_6\n      jumpi\n        /* \"--CODEGEN--\":29:30   */\n      0x00\n        /* \"--CODEGEN--\":26:27   */\n      dup1\n        /* \"--CODEGEN--\":19:31   */\n      revert\n        /* \"--CODEGEN--\":2:4   */\n    tag_6:\n        /* \"prac6c.sol\":53:414  function factorial(int num) pure public returns(int res) \r... */\n      dup2\n      add\n      swap1\n      dup1\n      dup1\n      calldataload\n      swap1\n      0x20\n      add\n      swap1\n      swap3\n      swap2\n      swap1\n      pop\n      pop\n      pop\n      tag_7\n      jump\t// in\n    tag_5:\n      mload(0x40)\n      dup1\n      dup3\n      dup2\n      mstore\n      0x20\n      add\n      swap2\n      pop\n      pop\n      mload(0x40)\n      dup1\n      swap2\n      sub\n      swap1\n      return\n        /* \"prac6c.sol\":422:661  function factorial2(int num) pure public returns(int)\r... */\n    tag_4:\n      tag_8\n      0x04\n      dup1\n      calldatasize\n      sub\n        /* \"--CODEGEN--\":13:15   */\n      0x20\n        /* \"--CODEGEN--\":8:11   */\n      dup2\n        /* \"--CODEGEN--\":5:16   */\n      lt\n        /* \"--CODEGEN--\":2:4   */\n      iszero\n      tag_9\n      jumpi\n        /* \"--CODEGEN--\":29:30   */\n      0x00\n        /* \"--CODEGEN--\":26:27   */\n      dup1\n        /* \"--CODEGEN--\":19:31   */\n      revert\n        /* \"--CODEGEN--\":2:4   */\n    tag_9:\n        /* \"prac6c.sol\":422:661  function factorial2(int num) pure public returns(int)\r... */\n      dup2\n      add\n      swap1\n      dup1\n      dup1\n      calldataload\n      swap1\n      0x20\n      add\n      swap1\n      swap3\n      swap2\n      swap1\n      pop\n      pop\n      pop\n      tag_10\n      jump\t// in\n    tag_8:\n      mload(0x40)\n      dup1\n      dup3\n      dup2\n      mstore\n      0x20\n      add\n      swap2\n      pop\n      pop\n      mload(0x40)\n      dup1\n      swap2\n      sub\n      swap1\n      return\n        /* \"prac6c.sol\":53:414  function factorial(int num) pure public returns(int res) \r... */\n    tag_7:\n        /* \"prac6c.sol\":101:108  int res */\n      0x00\n        /* \"prac6c.sol\":138:139  0 */\n      dup1\n        /* \"prac6c.sol\":131:134  num */\n      dup3\n        /* \"prac6c.sol\":131:139  num == 0 */\n      eq\n        /* \"prac6c.sol\":127:386  if (num == 0) \r... */\n      iszero\n      tag_12\n      jumpi\n        /* \"prac6c.sol\":172:173  1 */\n      0x01\n        /* \"prac6c.sol\":166:173  res = 1 */\n      swap1\n      pop\n        /* \"prac6c.sol\":127:386  if (num == 0) \r... */\n      jump(tag_13)\n    tag_12:\n        /* \"prac6c.sol\":225:234  int facto */\n      0x00\n        /* \"prac6c.sol\":237:238  1 */\n      0x01\n        /* \"prac6c.sol\":225:238  int facto = 1 */\n      swap1\n      pop\n        /* \"prac6c.sol\":257:262  int i */\n      0x00\n        /* \"prac6c.sol\":265:266  1 */\n      0x01\n        /* \"prac6c.sol\":257:266  int i = 1 */\n      swap1\n      pop\n        /* \"prac6c.sol\":253:349  for(int i = 1; i <= num ; i++)\r... */\n    tag_14:\n        /* \"prac6c.sol\":273:276  num */\n      dup4\n        /* \"prac6c.sol\":268:269  i */\n      dup2\n        /* \"prac6c.sol\":268:276  i <= num */\n      sgt\n        /* \"prac6c.sol\":253:349  for(int i = 1; i <= num ; i++)\r... */\n      tag_15\n      jumpi\n        /* \"prac6c.sol\":330:331  i */\n      dup1\n        /* \"prac6c.sol\":324:329  facto */\n      dup3\n        /* \"prac6c.sol\":324:331  facto*i */\n      mul\n        /* \"prac6c.sol\":316:331  facto = facto*i */\n      swap2\n      pop\n        /* \"prac6c.sol\":279:282  i++ */\n      dup1\n      dup1\n      0x01\n      add\n      swap2\n      pop\n      pop\n        /* \"prac6c.sol\":253:349  for(int i = 1; i <= num ; i++)\r... */\n      jump(tag_14)\n    tag_15:\n      pop\n        /* \"prac6c.sol\":369:374  facto */\n      dup1\n        /* \"prac6c.sol\":363:374  res = facto */\n      swap2\n      pop\n        /* \"prac6c.sol\":127:386  if (num == 0) \r... */\n      pop\n    tag_13:\n        /* \"prac6c.sol\":403:406  res */\n      dup1\n        /* \"prac6c.sol\":396:406  return res */\n      swap1\n      pop\n        /* \"prac6c.sol\":53:414  function factorial(int num) pure public returns(int res) \r... */\n      swap2\n      swap1\n      pop\n      jump\t// out\n        /* \"prac6c.sol\":422:661  function factorial2(int num) pure public returns(int)\r... */\n    tag_10:\n        /* \"prac6c.sol\":471:474  int */\n      0x00\n        /* \"prac6c.sol\":492:500  int fact */\n      dup1\n        /* \"prac6c.sol\":503:504  1 */\n      0x01\n        /* \"prac6c.sol\":492:504  int fact = 1 */\n      swap1\n      pop\n        /* \"prac6c.sol\":515:520  int i */\n      0x00\n        /* \"prac6c.sol\":523:524  1 */\n      0x01\n        /* \"prac6c.sol\":515:524  int i = 1 */\n      swap1\n      pop\n        /* \"prac6c.sol\":535:632  while(i <= num)\r... */\n    tag_18:\n        /* \"prac6c.sol\":546:549  num */\n      dup4\n        /* \"prac6c.sol\":541:542  i */\n      dup2\n        /* \"prac6c.sol\":541:549  i <= num */\n      sgt\n        /* \"prac6c.sol\":535:632  while(i <= num)\r... */\n      tag_19\n      jumpi\n        /* \"prac6c.sol\":587:588  i */\n      dup1\n        /* \"prac6c.sol\":582:586  fact */\n      dup3\n        /* \"prac6c.sol\":582:588  fact*i */\n      mul\n        /* \"prac6c.sol\":575:588  fact = fact*i */\n      swap2\n      pop\n        /* \"prac6c.sol\":603:606  i++ */\n      dup1\n      dup1\n      0x01\n      add\n      swap2\n      pop\n      pop\n        /* \"prac6c.sol\":535:632  while(i <= num)\r... */\n      jump(tag_18)\n    tag_19:\n        /* \"prac6c.sol\":649:653  fact */\n      dup2\n        /* \"prac6c.sol\":642:653  return fact */\n      swap3\n      pop\n      pop\n      pop\n        /* \"prac6c.sol\":422:661  function factorial2(int num) pure public returns(int)\r... */\n      swap2\n      swap1\n      pop\n      jump\t// out\n\n    auxdata: 0xa265627a7a7231582080ce0c168554a88f1895717a4b3631bc0868dafa713031a9cbf56bf4df345afd64736f6c63430005110032\n}\n",
				"bytecode": {
					"linkReferences": {},
					"object": "608060405234801561001057600080fd5b5061016c806100206000396000f3fe608060405234801561001057600080fd5b50600436106100365760003560e01c80635ad78e8a1461003b578063999dfb421461007d575b600080fd5b6100676004803603602081101561005157600080fd5b81019080803590602001909291905050506100bf565b6040518082815260200191505060405180910390f35b6100a96004803603602081101561009357600080fd5b8101908080359060200190929190505050610106565b6040518082815260200191505060405180910390f35b6000808214156100d257600190506100fe565b6000600190506000600190505b8381136100f857808202915080806001019150506100df565b50809150505b809050919050565b600080600190506000600190505b83811361012d5780820291508080600101915050610114565b819250505091905056fea265627a7a7231582080ce0c168554a88f1895717a4b3631bc0868dafa713031a9cbf56bf4df345afd64736f6c63430005110032",
					"opcodes": "PUSH1 0x80 PUSH1 0x40 MSTORE CALLVALUE DUP1 ISZERO PUSH2 0x10 JUMPI PUSH1 0x0 DUP1 REVERT JUMPDEST POP PUSH2 0x16C DUP1 PUSH2 0x20 PUSH1 0x0 CODECOPY PUSH1 0x0 RETURN INVALID PUSH1 0x80 PUSH1 0x40 MSTORE CALLVALUE DUP1 ISZERO PUSH2 0x10 JUMPI PUSH1 0x0 DUP1 REVERT JUMPDEST POP PUSH1 0x4 CALLDATASIZE LT PUSH2 0x36 JUMPI PUSH1 0x0 CALLDATALOAD PUSH1 0xE0 SHR DUP1 PUSH4 0x5AD78E8A EQ PUSH2 0x3B JUMPI DUP1 PUSH4 0x999DFB42 EQ PUSH2 0x7D JUMPI JUMPDEST PUSH1 0x0 DUP1 REVERT JUMPDEST PUSH2 0x67 PUSH1 0x4 DUP1 CALLDATASIZE SUB PUSH1 0x20 DUP2 LT ISZERO PUSH2 0x51 JUMPI PUSH1 0x0 DUP1 REVERT JUMPDEST DUP2 ADD SWAP1 DUP1 DUP1 CALLDATALOAD SWAP1 PUSH1 0x20 ADD SWAP1 SWAP3 SWAP2 SWAP1 POP POP POP PUSH2 0xBF JUMP JUMPDEST PUSH1 0x40 MLOAD DUP1 DUP3 DUP2 MSTORE PUSH1 0x20 ADD SWAP2 POP POP PUSH1 0x40 MLOAD DUP1 SWAP2 SUB SWAP1 RETURN JUMPDEST PUSH2 0xA9 PUSH1 0x4 DUP1 CALLDATASIZE SUB PUSH1 0x20 DUP2 LT ISZERO PUSH2 0x93 JUMPI PUSH1 0x0 DUP1 REVERT JUMPDEST DUP2 ADD SWAP1 DUP1 DUP1 CALLDATALOAD SWAP1 PUSH1 0x20 ADD SWAP1 SWAP3 SWAP2 SWAP1 POP POP POP PUSH2 0x106 JUMP JUMPDEST PUSH1 0x40 MLOAD DUP1 DUP3 DUP2 MSTORE PUSH1 0x20 ADD SWAP2 POP POP PUSH1 0x40 MLOAD DUP1 SWAP2 SUB SWAP1 RETURN JUMPDEST PUSH1 0x0 DUP1 DUP3 EQ ISZERO PUSH2 0xD2 JUMPI PUSH1 0x1 SWAP1 POP PUSH2 0xFE JUMP JUMPDEST PUSH1 0x0 PUSH1 0x1 SWAP1 POP PUSH1 0x0 PUSH1 0x1 SWAP1 POP JUMPDEST DUP4 DUP2 SGT PUSH2 0xF8 JUMPI DUP1 DUP3 MUL SWAP2 POP DUP1 DUP1 PUSH1 0x1 ADD SWAP2 POP POP PUSH2 0xDF JUMP JUMPDEST POP DUP1 SWAP2 POP POP JUMPDEST DUP1 SWAP1 POP SWAP2 SWAP1 POP JUMP JUMPDEST PUSH1 0x0 DUP1 PUSH1 0x1 SWAP1 POP PUSH1 0x0 PUSH1 0x1 SWAP1 POP JUMPDEST DUP4 DUP2 SGT PUSH2 0x12D JUMPI DUP1 DUP3 MUL SWAP2 POP DUP1 DUP1 PUSH1 0x1 ADD SWAP2 POP POP PUSH2 0x114 JUMP JUMPDEST DUP2 SWAP3 POP POP POP SWAP2 SWAP1 POP JUMP INVALID LOG2 PUSH6 0x627A7A723158 KECCAK256 DUP1 0xCE 0xC AND DUP6 SLOAD 0xA8 DUP16 XOR SWAP6 PUSH18 0x7A4B3631BC0868DAFA713031A9CBF56BF4DF CALLVALUE GAS REVERT PUSH5 0x736F6C6343 STOP SDIV GT STOP ORIGIN "
				},
				"gasEstimates": {
					"creation": {
						"codeDepositCost": "72800",
						"executionCost": "123",
						"totalCost": "72923"
					},
					"external": {
						"factorial(int256)": "infinite",
						"factorial2(int256)": "infinite"
					}
				},
				"methodIdentifiers": {
					"factorial(int256)": "5ad78e8a",
					"factorial2(int256)": "999dfb42"
				}
			},
			"storageLayout": {
				"storage": [],
				"types": null
			},
			"userdoc": {
				"methods": {}
			}
		}
	}
}