{
	"data": {
		"bytecode": {
			"linkReferences": {},
			"object": "608060405234801561001057600080fd5b506101be806100206000396000f3fe608060405234801561001057600080fd5b50600436106100365760003560e01c80639cf27f371461003b578063d17f9a4114610069575b600080fd5b6100676004803603602081101561005157600080fd5b81019080803590602001909291905050506100ec565b005b6100716100f6565b6040518080602001828103825283818151815260200191508051906020019080838360005b838110156100b1578082015181840152602081019050610096565b50505050905090810190601f1680156100de5780820380516001836020036101000a031916815260200191505b509250505060405180910390f35b8060008190555050565b6060600060026000548161010657fe5b07141561014a576040518060400160405280601281526020017f546865206e756d626572206973206576656e00000000000000000000000000008152509050610183565b6040518060400160405280601181526020017f746865206e756d626572206973206f646400000000000000000000000000000081525090505b8090509056fea265627a7a723158200fe7fd24423bc1c8378f4ca48f1b5f524bbbd45848d41efa83a3f8b4158ae44c64736f6c63430005110032",
			"opcodes": "PUSH1 0x80 PUSH1 0x40 MSTORE CALLVALUE DUP1 ISZERO PUSH2 0x10 JUMPI PUSH1 0x0 DUP1 REVERT JUMPDEST POP PUSH2 0x1BE DUP1 PUSH2 0x20 PUSH1 0x0 CODECOPY PUSH1 0x0 RETURN INVALID PUSH1 0x80 PUSH1 0x40 MSTORE CALLVALUE DUP1 ISZERO PUSH2 0x10 JUMPI PUSH1 0x0 DUP1 REVERT JUMPDEST POP PUSH1 0x4 CALLDATASIZE LT PUSH2 0x36 JUMPI PUSH1 0x0 CALLDATALOAD PUSH1 0xE0 SHR DUP1 PUSH4 0x9CF27F37 EQ PUSH2 0x3B JUMPI DUP1 PUSH4 0xD17F9A41 EQ PUSH2 0x69 JUMPI JUMPDEST PUSH1 0x0 DUP1 REVERT JUMPDEST PUSH2 0x67 PUSH1 0x4 DUP1 CALLDATASIZE SUB PUSH1 0x20 DUP2 LT ISZERO PUSH2 0x51 JUMPI PUSH1 0x0 DUP1 REVERT JUMPDEST DUP2 ADD SWAP1 DUP1 DUP1 CALLDATALOAD SWAP1 PUSH1 0x20 ADD SWAP1 SWAP3 SWAP2 SWAP1 POP POP POP PUSH2 0xEC JUMP JUMPDEST STOP JUMPDEST PUSH2 0x71 PUSH2 0xF6 JUMP JUMPDEST PUSH1 0x40 MLOAD DUP1 DUP1 PUSH1 0x20 ADD DUP3 DUP2 SUB DUP3 MSTORE DUP4 DUP2 DUP2 MLOAD DUP2 MSTORE PUSH1 0x20 ADD SWAP2 POP DUP1 MLOAD SWAP1 PUSH1 0x20 ADD SWAP1 DUP1 DUP4 DUP4 PUSH1 0x0 JUMPDEST DUP4 DUP2 LT ISZERO PUSH2 0xB1 JUMPI DUP1 DUP3 ADD MLOAD DUP2 DUP5 ADD MSTORE PUSH1 0x20 DUP2 ADD SWAP1 POP PUSH2 0x96 JUMP JUMPDEST POP POP POP POP SWAP1 POP SWAP1 DUP2 ADD SWAP1 PUSH1 0x1F AND DUP1 ISZERO PUSH2 0xDE JUMPI DUP1 DUP3 SUB DUP1 MLOAD PUSH1 0x1 DUP4 PUSH1 0x20 SUB PUSH2 0x100 EXP SUB NOT AND DUP2 MSTORE PUSH1 0x20 ADD SWAP2 POP JUMPDEST POP SWAP3 POP POP POP PUSH1 0x40 MLOAD DUP1 SWAP2 SUB SWAP1 RETURN JUMPDEST DUP1 PUSH1 0x0 DUP2 SWAP1 SSTORE POP POP JUMP JUMPDEST PUSH1 0x60 PUSH1 0x0 PUSH1 0x2 PUSH1 0x0 SLOAD DUP2 PUSH2 0x106 JUMPI INVALID JUMPDEST SMOD EQ ISZERO PUSH2 0x14A JUMPI PUSH1 0x40 MLOAD DUP1 PUSH1 0x40 ADD PUSH1 0x40 MSTORE DUP1 PUSH1 0x12 DUP2 MSTORE PUSH1 0x20 ADD PUSH32 0x546865206E756D626572206973206576656E0000000000000000000000000000 DUP2 MSTORE POP SWAP1 POP PUSH2 0x183 JUMP JUMPDEST PUSH1 0x40 MLOAD DUP1 PUSH1 0x40 ADD PUSH1 0x40 MSTORE DUP1 PUSH1 0x11 DUP2 MSTORE PUSH1 0x20 ADD PUSH32 0x746865206E756D626572206973206F6464000000000000000000000000000000 DUP2 MSTORE POP SWAP1 POP JUMPDEST DUP1 SWAP1 POP SWAP1 JUMP INVALID LOG2 PUSH6 0x627A7A723158 KECCAK256 0xF 0xE7 REVERT 0x24 TIMESTAMP EXTCODESIZE 0xC1 0xC8 CALLDATACOPY DUP16 0x4C LOG4 DUP16 SHL 0x5F MSTORE 0x4B 0xBB 0xD4 PC 0x48 0xD4 0x1E STATICCALL DUP4 LOG3 0xF8 0xB4 ISZERO DUP11 0xE4 0x4C PUSH5 0x736F6C6343 STOP SDIV GT STOP ORIGIN "
		},
		"gasEstimates": {
			"creation": {
				"codeDepositCost": "89200",
				"executionCost": "135",
				"totalCost": "89335"
			},
			"external": {
				"Even_Odd()": "infinite",
				"setNumber(int256)": "20220"
			}
		},
		"methodIdentifiers": {
			"Even_Odd()": "d17f9a41",
			"setNumber(int256)": "9cf27f37"
		}
	},
	"abi": [
		{
			"constant": true,
			"inputs": [],
			"name": "Even_Odd",
			"outputs": [
				{
					"internalType": "string",
					"name": "res",
					"type": "string"
				}
			],
			"payable": false,
			"stateMutability": "view",
			"type": "function"
		},
		{
			"constant": false,
			"inputs": [
				{
					"internalType": "int256",
					"name": "n",
					"type": "int256"
				}
			],
			"name": "setNumber",
			"outputs": [],
			"payable": false,
			"stateMutability": "nonpayable",
			"type": "function"
		}
	]
}